{
  "contractName": "Adoption",
  "abi": [
    {
      "constant": true,
      "inputs": [
        {
          "name": "",
          "type": "uint256"
        }
      ],
      "name": "adopters",
      "outputs": [
        {
          "name": "",
          "type": "address"
        }
      ],
      "payable": false,
      "stateMutability": "view",
      "type": "function"
    },
    {
      "constant": true,
      "inputs": [
        {
          "name": "",
          "type": "uint256"
        }
      ],
      "name": "petPrices",
      "outputs": [
        {
          "name": "",
          "type": "uint256"
        }
      ],
      "payable": false,
      "stateMutability": "view",
      "type": "function"
    },
    {
      "constant": false,
      "inputs": [
        {
          "name": "petId",
          "type": "uint256"
        }
      ],
      "name": "adopt",
      "outputs": [
        {
          "name": "",
          "type": "uint256"
        }
      ],
      "payable": true,
      "stateMutability": "payable",
      "type": "function"
    },
    {
      "constant": true,
      "inputs": [],
      "name": "getAdopters",
      "outputs": [
        {
          "name": "",
          "type": "address[16]"
        }
      ],
      "payable": false,
      "stateMutability": "view",
      "type": "function"
    },
    {
      "constant": true,
      "inputs": [],
      "name": "getPetPrices",
      "outputs": [
        {
          "name": "",
          "type": "uint256[16]"
        }
      ],
      "payable": false,
      "stateMutability": "view",
      "type": "function"
    },
    {
      "constant": true,
      "inputs": [],
      "name": "getBalance",
      "outputs": [
        {
          "name": "",
          "type": "uint256"
        }
      ],
      "payable": false,
      "stateMutability": "view",
      "type": "function"
    }
  ],
  "bytecode": "0x6060604052341561000f57600080fd5b6104848061001e6000396000f300606060405260043610610078576000357c0100000000000000000000000000000000000000000000000000000000900463ffffffff16806312065fe01461007d5780633de4eb17146100a657806343ae80d3146100f757806360aa07801461015a5780638588b2c514610191578063e6438966146101bd575b600080fd5b341561008857600080fd5b61009061020e565b6040518082815260200191505060405180910390f35b34156100b157600080fd5b6100b961022d565b6040518082601060200280838360005b838110156100e45780820151818401526020810190506100c9565b5050505090500191505060405180910390f35b341561010257600080fd5b61011860048080359060200190919050506102ae565b604051808273ffffffffffffffffffffffffffffffffffffffff1673ffffffffffffffffffffffffffffffffffffffff16815260200191505060405180910390f35b341561016557600080fd5b61017b60048080359060200190919050506102e3565b6040518082815260200191505060405180910390f35b6101a760048080359060200190919050506102fd565b6040518082815260200191505060405180910390f35b34156101c857600080fd5b6101d06103a6565b6040518082601060200280838360005b838110156101fb5780820151818401526020810190506101e0565b5050505090500191505060405180910390f35b60003073ffffffffffffffffffffffffffffffffffffffff1631905090565b6102356103f0565b60006010806020026040519081016040528092919082601080156102a4576020028201915b8160009054906101000a900473ffffffffffffffffffffffffffffffffffffffff1673ffffffffffffffffffffffffffffffffffffffff168152602001906001019080831161025a575b5050505050905090565b6000816010811015156102bd57fe5b016000915054906101000a900473ffffffffffffffffffffffffffffffffffffffff1681565b6010816010811015156102f257fe5b016000915090505481565b60008082101580156103105750600f8211155b151561031b57600080fd5b60108260108110151561032a57fe5b0154341015151561033a57600080fd5b3360008360108110151561034a57fe5b0160006101000a81548173ffffffffffffffffffffffffffffffffffffffff021916908373ffffffffffffffffffffffffffffffffffffffff1602179055503460108360108110151561039957fe5b0181905550819050919050565b6103ae61042f565b601080806020026040519081016040528092919082601080156103e6576020028201915b8154815260200190600101908083116103d2575b5050505050905090565b610200604051908101604052806010905b600073ffffffffffffffffffffffffffffffffffffffff168152602001906001900390816104015790505090565b610200604051908101604052806010905b600081526020019060019003908161044057905050905600a165627a7a723058205a7cb41472623d6e0d630f020e6cedd6d516574415e98887bbb924c59a2267600029",
  "source": "pragma solidity ^0.4.17;\n\ncontract Adoption {\n\n  address[16] public adopters;\n  uint[16] public petPrices;\n\n  // Adopting a pet\n  function adopt(uint petId) public payable returns (uint) {\n    require(petId >= 0 && petId <= 15);\n    require(msg.value >= petPrices[petId]);\n\n    adopters[petId] = msg.sender;\n    petPrices[petId] = msg.value;\n\n    return petId;\n  }\n\n  // Retrieving the adopters\n  function getAdopters() public view returns (address[16]) {\n    return adopters;\n  }\n\n  function getPetPrices() public view returns (uint[16]) {\n    return petPrices;\n  }\n\n  function getBalance() public view returns(uint){\n    return this.balance;\n  }\n\n\n}\n",
  "sourcePath": "/home/rufus/Dev/csem-2017/exercise10/contracts/Adoption.sol",
  "compiler": {
    "name": "solc",
    "version": "0.4.19+commit.c4cbbb05.Emscripten.clang"
  },
  "schemaVersion": "1.0.1",
  "updatedAt": "2018-02-12T10:49:08.205Z"
}